:020000040000FA
:020000001028C6
:02000800672A65
:10002000831685010514851485150516860107308C
:1000300081008312A0308B00D930810064309000A1
:100040006430A7008601B601B501B701B801B90156
:10005000A901B001B101B201910192019401930192
:100060009501A801A201A301A501A401A40AA20A65
:10007000A101B301A001A60196019901211033103D
:10008000051C7128851C8128851D3314051E21142B
:10009000211866283318692820189628A018CE2819
:1000A00019101308860086176C2086131408860022
:1000B00006176C2006131508860086166C2086121B
:1000C0001608860006166C2006124028051AA00A9B
:1000D0004C288519A0144C28FF309700970B6E28E8
:1000E0000800191851281914930A13080A3C031D13
:1000F00051289301940A1408063C031D51289401C9
:100100005128191851281914950A15080A3C031D7D
:100110008A2893281508043C031D5128961C512851
:100120009601950151289501960A51282110331006
:10013000051CC428851CC9281910851D3314051EEB
:1001400021142118BE283318C128201C3E28A018CD
:1001500003292408860086176C208613250886004C
:1001600006176C2006132208860086166C2086125D
:100170002308860006166C2006129828051AA0038C
:10018000A5288519A00AA5281918A9281914B2218B
:10019000A9281918A92819143322A92833102110C5
:1001A0003410051CFD281910851C3414051E21145B
:1001B000851D33143318F2282118F8283418F5282F
:1001C000A01CEF28201803291108860086176C2030
:1001D00086131208860006176C200613D128201CEF
:1001E0003E2896288519A001E0288518A00AE02855
:1001F000051AA001051A2014E0281918E42819147A
:1002000091019201E42834102110051C2B29851D31
:1002100049291910051E2114851C34143418352958
:100220002118382920195429201CCE282908860095
:1002300086176C2086133008860006176C2006137C
:100240003108860086166C20861232088600061653
:100250006C2006120529191816291914281C33298F
:100260003129281016292814162985183B29122906
:10027000051A42291229A003A901B001B101B20156
:1002800028101229A00AA901B001B101B201281059
:100290001229191816291914A901B001B101B201C6
:1002A00028106430A7001629A101B901B90A051C5C
:1002B0003914051CB910051C3911851CB914851C8D
:1002C0003910851C3911851D3915851DB910851DFD
:1002D0003910051E211421189B29201D03291308FC
:1002E000B5001408B6001508B7001608B80039188C
:1002F0009229B91895293919982935088600861741
:100300006C2086133608860006176C200613370803
:10031000860086166C2086123808860006166C2029
:10032000061257290630C0009E290C30C0009E29B5
:100330000530C0009E29051AA0036D29B70A3708A9
:100340000A3C031DA429AD293708043C031DAF292D
:10035000B81CAF29B801B701AF29B701B80AC00B63
:100360009E297D292508013C031DB729DB29240886
:10037000013C0319EA292408023C0319EC2924084A
:10038000033C0319EA292408043C0319E82924083A
:10039000053C0319EA292408063C0319E829240826
:1003A000073C0319EA292408083C0319EA29240810
:1003B000093C0319E8292408003C0319EA29240808
:1003C000013C0319E8292408023C0319EA29080022
:1003D000EE21E7291C22E7290522E7292610A20A97
:1003E00022080A3C031DF529022A2208013C031DAC
:1003F00008002308033C031D0800A301A201A20A70
:1004000026140800A201A30A08002610A20A220846
:100410000A3C031D0C2A192A2208093C031D080066
:100420002308023C031D0800A301A201A20A26140E
:100430000800A201A30A08002610A20A22080A3C0A
:10044000031D232A302A2208023C031D080023082A
:10045000033C031D0800A301A201A20A2614080000
:10046000A201A30A0800A40A24080A3C031D392A91
:10047000452A2408033C031D08002508013C031DF0
:100480000800A501A401A40A0800A401A50A080007
:0204CE00900B91
:1004D0006A2A902A2818712AD93081000B1118082D
:1004E0000900A70B6C2A742AA90A29080A3C031DD3
:1004F0008D2AA901B00A3008063C031D8D2AB001DF
:10050000B10A31080A3C031D8D2AB101B20A320832
:10051000063C031D8D2AB2018D2A6430A7006A2A89
:100520000519942A0515952A05119800910A1108B4
:100530000A3C031DC72A9101920A1208063C031DBA
:10054000C72A9201930A13080A3C031DC72A930184
:10055000940A1408063C031DC72A9401950A15083D
:100560000A3C031DB42ABE2A1508043C031DC72AF1
:10057000961CC72A96019501C12AC72A9501960A99
:10058000C72AB2212618C52AC72A2610332264306A
:0405900090006A2A43
:00000001FF
